00083SS7770100083150                   00579EXT            -396361N
00083SS7770100083150                   00587EXT               1500N
00083SS7770100083150                   00697EXT             -55430N
00083SS7770100083150                   01152EXT            -154873N
00083SS7770100083151                   01024EXT          -82296053N
00083SS77701000832811                  00000EXT           82901217N
00083SS0000007095173210                00001EXT         -100016184N
00083SS0000007095173210                00000EXT          -30275000N
00083SS00000070951732110               00000EXT         -101514484N
00083SS0000007095241204                00000EXT             247407N
00083SS0000007095241242                00001EXT          101241683N
00083SS0000007095241242                00000EXT          130316578N
00083SS6101000083171101                00000EXT          968508432N
00083SS610100008326231                 00000EXT         -263319540N
00083SS610100008326330                 00000EXT         -295027119N
00083SS61010000832640302000            00000EXT              -5207N
00083SS6101000083264030100             00000EXT              -2836N
00083SS61010000832640302010            00000EXT               -125N
00083SS61010000832640301110            00000EXT           -1811151N
00083SS610100008326403021500           00000EXT           -1709736N
00083SS61010000832640303000            00000EXT          -34782647N
00083SS61010000832640303001            00000EXT           -5634041N
00083SS61010000832640303010            00000EXT          -30025323N
00083SS61010000832640303020            00000EXT          -22544576N
00083SS61010000832640304141            00000EXT            -371967N
00083SS61010000832640303011            00000EXT          -25334967N
00083SS61010000832640303100            00000EXT          -49527720N
00083SS61010000832640303101            00000EXT           -6847571N
00083SS610100008326403031210           00000EXT             -76459N
00083SS61010000832640304101            00000EXT           -6315676N
00083SS610100008326403031220           00000EXT          -10654416N
00083SS610100008326403031221           00000EXT           -9254132N
00083SS61010000832640303140            00000EXT           -2607263N
00083SS61010000832640303141            00000EXT            -643096N
00083SS610100008326403031520           00000EXT         -181594171N
00083SS610100008326403031521           00000EXT          -15225619N
00083SS61010000832640304001            00000EXT          -26425961N
00083SS61010000832640304021            00000EXT           -1759174N
00083SS61010000832640304011            00000EXT        -1360260940N
00083SS610100008326403041211           00000EXT         -204128926N
00083SS610100008326403041221           00000EXT         -230417246N
00083SS610100008326403041511           00000EXT         -442053843N
00083SS61010000832811                  00000EXT         2262413188N
00083SS610100008354840                 00000EXT           -3813812N
00083SS6101000083474231                00000EXT           18230406N
00083SS61010000834911                  00000EXT            1097217N
00083SS6101000083540401                00000EXT          -18073983N
00083SS6102000083171101                00000EXT          838427036N
00083SS610200008326404101              00000EXT         -201592428N
00083SS610200008326241                 00000EXT         -104028418N
00083SS610200008326340                 00000EXT          -41083302N
00083SS6102000083264040100             00000EXT               -706N
00083SS61020000832640403000            00000EXT          -32819661N
00083SS61020000832640403001            00000EXT           -3702446N
00083SS61020000832640403010            00000EXT          -11244168N
00083SS61020000832640403011            00000EXT           -3718096N
00083SS61020000832640403020            00000EXT           -7731888N
00083SS61020000832640403100            00000EXT           -8601339N
00083SS61020000832640404101            00000EXT           -1038750N
00083SS61020000832640404141            00000EXT             -51189N
00083SS610200008326404031220           00000EXT          -16049950N
00083SS610200008326404031221           00000EXT           -5153832N
00083SS610200008326404031210           00000EXT           -2629585N
00083SS61020000832640403140            00000EXT           -2355246N
00083SS61020000832640403141            00000EXT            -665665N
00083SS610200008326404031520           00000EXT         -530399190N
00083SS610200008326404031521           00000EXT          -11722822N
00083SS61020000832640404001            00000EXT          -60728294N
00083SS61020000832640404011            00000EXT         -423369964N
00083SS610200008326404041211           00000EXT          -18659703N
00083SS61020000832640404021            00000EXT          -18917915N
00083SS610200008326404041221           00000EXT         -142350520N
00083SS610200008326404041511           00000EXT        -1146141714N
00083SS61020000832811                  00000EXT         2050027908N
00083SS6102000083474241                00000EXT            2741097N
00083SS610200008354850                 00000EXT           -3730822N
00083SS61020000834911                  00000EXT           40156351N
00083SS6102000083460411                00000EXT           68357452N
00083SS6102000083540501                00000EXT         -201222231N
00083SS6103000083171101                00000EXT        -1225155134N
00083SS61030000832640003000            00000EXT        -1664018822N
00083SS61030000832640003001            00000EXT          -57256906N
00083SS61030000832640003010            00000EXT          -16155301N
00083SS61030000832640003011            00000EXT          -11831245N
00083SS61030000832640003020            00000EXT          -16974753N
00083SS61030000832640003021            00000EXT           -2862504N
00083SS61030000832640003100            00000EXT          -50153666N
00083SS61030000832640003101            00000EXT           -2462005N
00083SS610300008326400031210           00000EXT            -197426N
00083SS610300008326400031220           00000EXT          -35313902N
00083SS610300008326400031221           00000EXT           -2847716N
00083SS61030000832640003140            00000EXT          -13188425N
00083SS61030000832640003141            00000EXT           -2267964N
00083SS610300008326400031520           00000EXT         -497377916N
00083SS610300008326400031521           00000EXT          -81170147N
00083SS61030000832640004001            00000EXT        -2406266834N
00083SS61030000832640004011            00000EXT        -1246462565N
00083SS610300008326400041211           00000EXT          -14430694N
00083SS610300008326400041221           00000EXT         -191842012N
00083SS610300008326400041511           00000EXT        10396931250N
00083SS61030000832811                  00000EXT        -2958174249N
00083SS6103000083460002                00000EXT          189375139N
00083SS61030000834911                  00000EXT          -42633829N
00083SS61030000835350                  00000EXT          -47262374N
00083SS71200000834731                  00000EXT          -43877520N
00083SS71200000834630                  00000EXT          -16236740N
00083SS7120000083160510                00000EXT          -81699108N
00083SS712000008316000                 00000EXT       -13565591977N
00083SS712000008316002                 00000EXT         -622345808N
00083SS71200000831601011               00000EXT          -19093991N
00083SS712000008316100                 00000EXT          385647663N
00083SS712000008328101                 00000EXT          121858915N
00083SS71200000834911                  00000EXT           20943862N
00083SS7120000083281020                00000EXT        10239595643N
00083SS71200000831605010               00000EXT           -7384371N
00083SS7120000083171101                00000EXT         3657996305N
00083SS712000008344002                 00000EXT          -69812873N
00083SS7300000083122200                00000EXT          164286253N
00083SS7300000083122201                00000EXT           48956503N
00083SS7300000083122210                00000EXT         -112863693N
00083SS73000000831222122               00000EXT          -15835202N
00083SS73000000831222141               00000EXT           -2111270N
00083SS73000000831222159               00000EXT         -144202954N
00083SS7300000083122300                00000EXT          -87139751N
00083SS7300000083122301                00000EXT          368391533N
00083SS730000008312231210              00000EXT           15320471N
00083SS730000008312231211              00000EXT             154754N
00083SS73000000831223122               00000EXT           33767105N
00083SS730000008312221211              00000EXT            9849883N
00083SS7300000083122315                00000EXT         -561015284N
00083SS7300000083140300                00000EXT         -164286252N
00083SS7300000083140301                00000EXT          -48956503N
00083SS7300000083140310                00000EXT          112863693N
00083SS73000000831403121               00000EXT           -9849883N
00083SS73000000831403122               00000EXT           15835202N
00083SS7300000083140314                00000EXT            2111270N
00083SS73000000831403152               00000EXT          144202954N
00083SS7300000083140400                00000EXT           87139751N
00083SS7300000083140401                00000EXT         -368391533N
00083SS73000000831404121               00000EXT          -15475226N
00083SS73000000831404122               00000EXT          -33767105N
00083SS7300000083140415                00000EXT          561015284N
00083SS761000008344002                 00000EXT           34906435N
00083SS76100000834630                  00000EXT           16236740N
00083SS76100000834731                  00000EXT           43877520N
00083SS76100000834910                  00000EXT            8500000N
00083SS76100000834911                  00000EXT         -960416859N
00083SS76100000834201                  00000EXT            2111344N
00083SS76100000835350                  00000EXT                199N
00083SS76100000835221                  00000EXT             119350N
00083SS7610000083514                   00579EXT            4386467N
00083SS7610000083281020                00000EXT        -4371424334N
00083SS76100000832811                  00000EXT         5221703138N
00083SS7770000083150                   00513EXT         -188927467N
00083SS7770000083150                   00579EXT           -6701533N
00083SS7770000083151                   01024EXT        -1387863510N
00083SS77700000832811                  00000EXT         2045731729N
00083SS777000008324991                 00000EXT         -458795913N
00083SS7770000083514                   00579EXT           -4386466N
00083SS7770000083514                   00513EXT             943160N
00083SS0000007115259                   00001NAC          208239426N
00083SS0000007115150                   00001NAC         -104347412N
00083SS000000711528310                 00000EXT         -103892014N
00083SS5000000083241204                00580EXT           -2017740N
00083SS5000000083241204                00000EXT           99920566N
00083SS5000000083241204                00175EXT           -3580667N
00083SS5000000083241204                04074EXT          -93103558N
00083SS5000000083241204                01115EXT            -945136N
00083SS5000000083241204                00333EXT            -273465N
00083SS5000000083431104101             00175EXT            3580667N
00083SS5000000083431104101             00580EXT            2017740N
00083SS5000000083431104101             04074EXT           93103558N
00083SS5000000083431104101             00333EXT             273465N
00083SS500000008343110411              00000EXT          -98975430N
00083SS50000000834311913               00000EXT            -945136N
00083SS50000000834311913               01115EXT             945136N
00083SS0000007129171101                00000EXT            5062036N
00083SS000000712924510                 00000EXT         -744197166N
00083SS000000712926400041511           00000EXT         2480657221N
00083SS000000712926403041511           00000EXT          -16873455N
00083SS0000007129460002                00000EXT          -63066733N
00083SS0000007129460311                00000EXT             493749N
00083SS00000071292811                  00000EXT        -1680847547N
00083SS00000071294911                  00000EXT           18771895N
00083SS000000713015331                 00000EXT           68902811N
00083SS00000071302811                  00000EXT          265598486N
00083SS00000071304911                  00000EXT          -72189819N
00083SS000000713024510                 00000EXT         -502944209N
00083SS00000071304250                  00000EXT          240632731N
00083SS000000712216000                 00000EXT        14996953502N
00083SS000000712216100                 00000EXT        -5080100955N
00083SS0000007122160011                00000EXT         8198421626N
00083SS000000712216101                 00000EXT        -4375810791N
00083SS000000712216002                 00000EXT         6884809897N
00083SS000000712216102                 00000EXT        -3791205622N
00083SS000000712216003                 00000EXT          386259998N
00083SS000000712215331                 00000EXT         2231633300N
00083SS000000712224510                 00000EXT        -5165798019N
00083SS00000071222810211               00000EXT       -22125675124N
00083SS0000007122281020                00000EXT          466763657N
00083SS00000071222811                  00000EXT         6489277946N
00083SS000000712244000                 00000EXT           63730110N
00083SS000000712244001                 00000EXT          136583960N
00083SS000000712244002                 00000EXT           50736451N
00083SS000000712244003                 00000EXT            1720181N
00083SS00000071224911                  00000EXT          -75831211N
00083SS0000007122478                   00000EXT          707531094N
