00083SS7770100083150                   00579EXT            -396361N
00083SS7770100083150                   00587EXT               1500N
00083SS7770100083150                   00697EXT             -55430N
00083SS7770100083150                   01152EXT            -154873N
00083SS7770100083151                   01024EXT          -82296053N
00083SS77701000832811                  00000EXT           82901217N
00083SS0000007095173210                00001EXT         -130606326N
00083SS00000070951732110               00000EXT         -136602426N
00083SS0000007095241204                00000EXT            1115826N
00083SS0000007095241242                00001EXT          131786796N
00083SS0000007095241242                00000EXT          134306130N
00083SS6101000083171101                00000EXT          965194483N
00083SS610100008326231                 00000EXT         -274355244N
00083SS610100008326330                 00000EXT         -305839724N
00083SS61010000832640302000            00000EXT                -51N
00083SS6101000083264030100             00000EXT              -3823N
00083SS61010000832640302010            00000EXT               -100N
00083SS61010000832640301110            00000EXT           -1932348N
00083SS610100008326403021500           00000EXT           -1631734N
00083SS61010000832640303000            00000EXT          -38468583N
00083SS61010000832640303001            00000EXT           -6528739N
00083SS61010000832640303010            00000EXT          -27354458N
00083SS61010000832640303020            00000EXT          -19315764N
00083SS61010000832640304141            00000EXT            -188487N
00083SS61010000832640303011            00000EXT          -25051588N
00083SS61010000832640303100            00000EXT          -41822224N
00083SS61010000832640303101            00000EXT           -6699732N
00083SS610100008326403031210           00000EXT             -77884N
00083SS61010000832640304101            00000EXT           -5860611N
00083SS610100008326403031220           00000EXT          -10496040N
00083SS610100008326403031221           00000EXT           -8561014N
00083SS61010000832640303140            00000EXT           -2506324N
00083SS61010000832640303141            00000EXT            -599784N
00083SS610100008326403031520           00000EXT         -178090319N
00083SS610100008326403031521           00000EXT          -15643500N
00083SS61010000832640304001            00000EXT          -26914098N
00083SS61010000832640304021            00000EXT           -1660376N
00083SS61010000832640304011            00000EXT        -1346810217N
00083SS610100008326403041211           00000EXT         -203863931N
00083SS610100008326403041221           00000EXT         -224322851N
00083SS610100008326403041511           00000EXT         -442715395N
00083SS61010000832811                  00000EXT         2262413188N
00083SS6101000083474340                00000EXT            6998792N
00083SS6101000083474231                00000EXT           29266110N
00083SS61010000834911                  00000EXT            4411169N
00083SS6101000083540401                00000EXT          -50968799N
00083SS6102000083171101                00000EXT          796542023N
00083SS610200008326404101              00000EXT         -180938569N
00083SS610200008326241                 00000EXT         -111714321N
00083SS610200008326340                 00000EXT          -37786401N
00083SS6102000083264040100             00000EXT               -645N
00083SS61020000832640403000            00000EXT          -37216344N
00083SS61020000832640403001            00000EXT           -2311094N
00083SS61020000832640403010            00000EXT          -11485967N
00083SS61020000832640403011            00000EXT           -2869350N
00083SS61020000832640403020            00000EXT           -5365542N
00083SS61020000832640403100            00000EXT           -4454532N
00083SS61020000832640404101            00000EXT           -1102628N
00083SS610200008326404031220           00000EXT          -15993471N
00083SS610200008326404031221           00000EXT           -5411450N
00083SS610200008326404031210           00000EXT           -2705760N
00083SS61020000832640403140            00000EXT           -2054322N
00083SS61020000832640403141            00000EXT             -51120N
00083SS610200008326404031520           00000EXT         -405733038N
00083SS610200008326404031521           00000EXT          -10165794N
00083SS61020000832640404001            00000EXT          -82519589N
00083SS61020000832640404011            00000EXT         -395368119N
00083SS610200008326404041211           00000EXT          -30633831N
00083SS61020000832640404021            00000EXT          -19070086N
00083SS610200008326404041221           00000EXT         -143299741N
00083SS610200008326404041511           00000EXT        -1146888360N
00083SS61020000832811                  00000EXT         2050027908N
00083SS6102000083474241                00000EXT           10427000N
00083SS610200008354850                 00000EXT           -7027725N
00083SS61020000834911                  00000EXT           82041366N
00083SS6102000083460411                00000EXT           68357452N
00083SS6102000083540501                00000EXT         -345227950N
00083SS6103000083171101                00000EXT        -1149067706N
00083SS61030000832640003000            00000EXT        -1667104968N
00083SS61030000832640003001            00000EXT          -61347693N
00083SS61030000832640003010            00000EXT          -16151703N
00083SS61030000832640003011            00000EXT          -12724229N
00083SS61030000832640003020            00000EXT          -13790382N
00083SS61030000832640003021            00000EXT           -3175172N
00083SS61030000832640003100            00000EXT          -48865878N
00083SS61030000832640003101            00000EXT           -2509866N
00083SS610300008326400031210           00000EXT            -198659N
00083SS610300008326400031220           00000EXT          -35367255N
00083SS610300008326400031221           00000EXT           -2394146N
00083SS61030000832640003140            00000EXT          -14298595N
00083SS61030000832640003141            00000EXT           -3576092N
00083SS610300008326400031520           00000EXT         -789637494N
00083SS610300008326400031521           00000EXT          -72923880N
00083SS61030000832640004001            00000EXT        -2534472052N
00083SS61030000832640004011            00000EXT        -1288706289N
00083SS610300008326400041211           00000EXT          -15283730N
00083SS610300008326400041221           00000EXT         -206364453N
00083SS610300008326400041511           00000EXT         9690587742N
00083SS61030000832811                  00000EXT        -2958174249N
00083SS6103000083460002                00000EXT          432013677N
00083SS61030000834911                  00000EXT         -118721258N
00083SS610300008326499                 00000EXT          -44270693N
00083SS61030000831732911               00000EXT         -537355610N
00083SS6103000083281020                00000EXT         1510156784N
00083SS61030000835350                  00000EXT          -36276151N
00083SS71200000834731                  00000EXT          -43877520N
00083SS71200000834630                  00000EXT          -16236740N
00083SS7120000083160510                00000EXT          -81699108N
00083SS712000008316000                 00000EXT       -13565591977N
00083SS712000008316002                 00000EXT         -622345808N
00083SS71200000831601011               00000EXT          -19093991N
00083SS712000008316100                 00000EXT          420554607N
00083SS712000008328101                 00000EXT          121858915N
00083SS71200000834911                  00000EXT           31415945N
00083SS7120000083281020                00000EXT        10239595643N
00083SS71200000831605010               00000EXT           -7384371N
00083SS7120000083171101                00000EXT         3647524222N
00083SS712000008344002                 00000EXT         -104719817N
00083SS7300000083122200                00000EXT          190271368N
00083SS7300000083122201                00000EXT           55902968N
00083SS7300000083122210                00000EXT         -109003182N
00083SS73000000831222122               00000EXT          -21798188N
00083SS73000000831222141               00000EXT           -6370877N
00083SS73000000831222159               00000EXT         -804465899N
00083SS7300000083122300                00000EXT         -109788598N
00083SS7300000083122301                00000EXT          382877116N
00083SS730000008312231210              00000EXT           19878284N
00083SS730000008312231211              00000EXT             198229N
00083SS73000000831223122               00000EXT           38403308N
00083SS730000008312221211              00000EXT           12239346N
00083SS7300000083122315                00000EXT         -514686304N
00083SS7300000083140300                00000EXT         -190271368N
00083SS7300000083140301                00000EXT          -55902968N
00083SS7300000083140310                00000EXT          109003182N
00083SS73000000831403121               00000EXT          -12239346N
00083SS73000000831403122               00000EXT           21798188N
00083SS7300000083140314                00000EXT            6370877N
00083SS73000000831403152               00000EXT          804465899N
00083SS7300000083140400                00000EXT          109788598N
00083SS7300000083140401                00000EXT         -382877116N
00083SS73000000831404121               00000EXT          -20076513N
00083SS73000000831404122               00000EXT          -38403308N
00083SS7300000083140415                00000EXT          514686304N
00083SS761000008324991                 00000EXT         -800347382N
00083SS761000008344002                 00000EXT           34906435N
00083SS76100000834630                  00000EXT           16236740N
00083SS76100000834731                  00000EXT           43877520N
00083SS76100000834910                  00000EXT            8500000N
00083SS76100000834911                  00000EXT         -160069477N
00083SS76100000834201                  00000EXT            2111344N
00083SS76100000835350                  00000EXT                199N
00083SS76100000835221                  00000EXT             119350N
00083SS7610000083514                   00579EXT            4386467N
00083SS7610000083281020                00000EXT        -4371424334N
00083SS76100000832811                  00000EXT         5221703138N
00083SS7770000083150                   00513EXT         -195388805N
00083SS7770000083150                   00579EXT           -6701533N
00083SS7770000083151                   01024EXT        -1387863510N
00083SS77700000832811                  00000EXT         2045712851N
00083SS777000008324991                 00000EXT         -458795913N
00083SS7770000083514                   00579EXT           -4386466N
00083SS7770000083514                   00513EXT            7423376N
00083SS0000007115259                   00001NAC          208239426N
00083SS0000007115150                   00001NAC         -104347412N
00083SS000000711528310                 00000EXT         -103892014N
00083SS5000000083241204                00580EXT           -4044843N
00083SS5000000083241204                00000EXT          200304750N
00083SS5000000083241204                00175EXT           -7177948N
00083SS5000000083241204                04074EXT         -186639103N
00083SS5000000083241204                01115EXT           -1894658N
00083SS5000000083241204                00333EXT            -548198N
00083SS5000000083431104101             00175EXT            7177948N
00083SS5000000083431104101             00580EXT            4044843N
00083SS5000000083431104101             04074EXT          186639103N
00083SS5000000083431104101             00333EXT             548198N
00083SS500000008343110411              00000EXT         -198410092N
00083SS50000000834311913               00000EXT           -1894658N
00083SS50000000834311913               01115EXT            1894658N
00083SS0000007129171101                00000EXT            5255068N
00083SS000000712924510                 00000EXT         -760392049N
00083SS000000712926400041511           00000EXT         2534640162N
00083SS000000712926403041511           00000EXT          -17516892N
00083SS00000071292811                  00000EXT        -1680847547N
00083SS0000007129460002                00000EXT         -117049674N
00083SS0000007129460311                00000EXT            1137186N
00083SS00000071294911                  00000EXT           34773746N
00083SS000000713015331                 00000EXT            2650748N
00083SS00000071302811                  00000EXT          265598486N
00083SS00000071304911                  00000EXT          -92065438N
00083SS000000713024510                 00000EXT         -483068590N
00083SS00000071304250                  00000EXT          306884794N
00083SS000000712216000                 00000EXT        15161209237N
00083SS000000712216100                 00000EXT        -5178859585N
00083SS0000007122160011                00000EXT         8254977427N
00083SS000000712216101                 00000EXT        -4479335018N
00083SS000000712216002                 00000EXT         6943034995N
00083SS000000712216102                 00000EXT        -3864558941N
00083SS000000712216003                 00000EXT          776111985N
00083SS000000712215331                 00000EXT         2297885363N
00083SS000000712224510                 00000EXT        -5283773752N
00083SS00000071222810211               00000EXT       -22833901683N
00083SS0000007122281020                00000EXT          466763657N
00083SS00000071222811                  00000EXT         6489277946N
00083SS0000007122402101                00000EXT              86832N
00083SS0000007122402109                00000EXT             140187N
00083SS000000712240220111              00000EXT            2182675N
00083SS00000071224022102               00000EXT            7209137N
00083SS00000071224022112               00000EXT            3886512N
00083SS00000071224022122               00000EXT           91112010N
00083SS00000071224022181               00000EXT             115907N
00083SS000000712240231                 00000EXT            5508155N
00083SS00000071224029                  00000EXT               5445N
00083SS00000071224112                  00000EXT             954898N
00083SS00000071224113                  00000EXT           20235697N
00083SS000000712241140                 00000EXT              37908N
00083SS000000712241141                 00000EXT              19250N
00083SS00000071224199                  00000EXT            -467251N
00083SS000000712243000                 00000EXT           21054534N
00083SS000000712243001                 00000EXT            6708386N
00083SS00000071224301                  00000EXT            4828010N
00083SS000000712243041                 00000EXT                870N
00083SS000000712243049                 00000EXT              38156N
00083SS00000071224305                  00000EXT               7470N
00083SS00000071224307                  00000EXT              51477N
00083SS000000712243100                 00000EXT            1949522N
00083SS0000007122431010                00000EXT            1983973N
00083SS000000712243102                 00000EXT            1151024N
00083SS0000007122431030                00000EXT             336509N
00083SS00000071224310311               00000EXT             412024N
00083SS00000071224310310               00000EXT             110506N
00083SS00000071224311011               00000EXT            2100072N
00083SS0000007122431102                00000EXT           -1441907N
00083SS000000712243110411              00000EXT            4964317N
00083SS0000007122431110                00000EXT             264698N
00083SS0000007122431111                00000EXT            2633103N
00083SS0000007122431112                00000EXT            1442314N
00083SS0000007122431113                00000EXT             369583N
00083SS0000007122431114                00000EXT               4357N
00083SS0000007122431120                00000EXT             873333N
00083SS0000007122431122                00000EXT              34159N
00083SS0000007122431123                00000EXT              33282N
00083SS0000007122431130                00000EXT               2793N
00083SS0000007122431140                00000EXT              91811N
00083SS0000007122431141                00000EXT            1448300N
00083SS0000007122431150                00000EXT            2750883N
00083SS0000007122431151                00000EXT            5389528N
00083SS000000712243116                 00000EXT             663564N
00083SS0000007122431170                00000EXT             223217N
00083SS0000007122431171                00000EXT              52157N
00083SS0000007122431172                00000EXT              61742N
00083SS0000007122431176                00000EXT              38591N
00083SS0000007122431177                00000EXT               2725N
00083SS00000071224311910               00000EXT              25836N
00083SS00000071224311912               00000EXT             151708N
00083SS00000071224311913               00000EXT            3243968N
00083SS00000071224311915               00000EXT              75776N
00083SS0000007122431192                00000EXT              17013N
00083SS0000007122431193                00000EXT              89858N
00083SS0000007122431194                00000EXT              47468N
00083SS0000007122431195                00000EXT             136706N
00083SS00000071224311960               00000EXT              60047N
00083SS00000071224311961               00000EXT               4503N
00083SS0000007122431197                00000EXT             119391N
00083SS0000007122431199                00000EXT               8299N
00083SS000000712243120                 00000EXT             935698N
00083SS000000712243121                 00000EXT            3622128N
00083SS000000712244000                 00000EXT          128356262N
00083SS000000712244001                 00000EXT          271276010N
00083SS000000712244002                 00000EXT          102589900N
00083SS000000712244003                 00000EXT            3553799N
00083SS000000712244060                 00000EXT            1250118N
00083SS00000071224410                  00000EXT            2396797N
00083SS000000712244119                 00000EXT             186515N
00083SS00000071224416                  00000EXT             148782N
00083SS00000071224418                  00000EXT              86958N
00083SS0000007122450                   00000EXT            1291230N
00083SS000000712245900                 00000EXT              11087N
00083SS000000712245901                 00000EXT             593505N
00083SS000000712245902                 00000EXT                337N
00083SS000000712245903                 00000EXT              91292N
00083SS000000712245905                 00000EXT                727N
00083SS000000712245906                 00000EXT             487345N
00083SS00000071224591                  00000EXT            2509143N
00083SS0000007122460002                00000EXT           16033476N
00083SS0000007122561010                00000EXT             -22840N
00083SS0000007122474900                00000EXT              11033N
00083SS0000007122474901                00000EXT                361N
00083SS0000007122474903                00000EXT              22854N
00083SS0000007122474906                00000EXT               3406N
00083SS000000712247491                 00000EXT             255965N
00083SS000000712247498                 00000EXT            4202022N
00083SS00000071224910                  00000EXT           22474521N
00083SS00000071224911                  00000EXT         -156384058N
00083SS0000007122502101                00000EXT            -387132N
00083SS0000007122502102                00000EXT             -62739N
00083SS0000007122502103                00000EXT          -11985256N
00083SS00000071225022102               00000EXT           -2767620N
00083SS00000071225022112               00000EXT          -32399312N
00083SS00000071225022122               00000EXT             -23875N
00083SS00000071225022142               00000EXT            -189340N
00083SS00000071225022152               00000EXT          -24502187N
00083SS00000071225022172               00000EXT          -72504332N
00083SS00000071225029                  00000EXT           -1115460N
00083SS0000007122503410                00000EXT          -10238708N
00083SS0000007122503414                00000EXT          -32488443N
00083SS0000007122514                   00513EXT             -18878N
00083SS00000071225200                  00000EXT            -196214N
00083SS00000071225210                  00000EXT             -40162N
00083SS00000071225211                  00000EXT          -16275115N
00083SS000000712252121                 00000EXT          -24097721N
00083SS00000071225213                  00000EXT           -6031694N
00083SS00000071225214                  00000EXT           -3588957N
00083SS00000071225220                  00000EXT            -169349N
00083SS00000071225221                  00000EXT            -302947N
00083SS0000007122522200                00000EXT            -451192N
00083SS000000712252231                 00000EXT              16020N
00083SS0000007122523                   00000EXT           -1364934N
00083SS00000071225240                  00000EXT               4743N
00083SS00000071225242                  00000EXT           -3326203N
00083SS0000007122527                   00000EXT            -643083N
00083SS00000071225300                  00000EXT          -39527211N
00083SS00000071225302                  00000EXT           -5483346N
00083SS00000071225350                  00000EXT           -2589258N
00083SS00000071225351                  00000EXT            1113469N
00083SS000000712254030                 00000EXT            -150409N
00083SS000000712255901                 00000EXT              -9610N
00083SS000000712255903                 00000EXT              -4102N
00083SS000000712255906                 00000EXT             -45577N
00083SS00000071225601                  00000EXT             -12693N
00083SS00000071225631                  00000EXT             -20351N
00083SS0000007122478                   00000EXT          941420156N
