00083SS7770100083150                   00579EXT            -396361N
00083SS7770100083150                   00587EXT               1500N
00083SS7770100083150                   00697EXT             -55430N
00083SS7770100083150                   01152EXT            -154873N
00083SS7770100083151                   01024EXT          -82296053N
00083SS77701000832811                  00000EXT           82901217N
00083SS0000007095173210                00001EXT          -57853343N
00083SS00000070951732110               00000EXT          -58943832N
00083SS0000007095241204                00000EXT             -58946N
00083SS0000007095241242                00001EXT           21761871N
00083SS0000007095241242                00000EXT           95094250N
00083SS6101000083171101                00000EXT          964908361N
00083SS610100008326231                 00000EXT         -277716269N
00083SS610100008326330                 00000EXT         -300229901N
00083SS61010000832640302000            00000EXT               -126N
00083SS6101000083264030100             00000EXT             -14668N
00083SS61010000832640302010            00000EXT               -123N
00083SS61010000832640301110            00000EXT           -5544389N
00083SS610100008326403021500           00000EXT           -2991109N
00083SS61010000832640303000            00000EXT          -50324231N
00083SS61010000832640303001            00000EXT           -6473470N
00083SS61010000832640303010            00000EXT          -27761067N
00083SS61010000832640303020            00000EXT          -18908955N
00083SS61010000832640304141            00000EXT            -162043N
00083SS61010000832640303011            00000EXT          -24915906N
00083SS61010000832640303100            00000EXT          -51839208N
00083SS61010000832640303101            00000EXT           -7629732N
00083SS610100008326403031210           00000EXT             -79532N
00083SS61010000832640304101            00000EXT           -7394858N
00083SS610100008326403031220           00000EXT          -10295390N
00083SS610100008326403031221           00000EXT           -8225515N
00083SS61010000832640303140            00000EXT           -2655419N
00083SS61010000832640303141            00000EXT            -474719N
00083SS610100008326403031520           00000EXT         -178929018N
00083SS610100008326403031521           00000EXT          -13719801N
00083SS61010000832640304001            00000EXT          -26411771N
00083SS61010000832640304021            00000EXT           -1695057N
00083SS61010000832640304011            00000EXT        -1323700632N
00083SS610100008326403041211           00000EXT         -204805027N
00083SS610100008326403041221           00000EXT         -218682244N
00083SS610100008326403041511           00000EXT         -444781024N
00083SS61010000832811                  00000EXT         2262413188N
00083SS6101000083474340                00000EXT            1388969N
00083SS6101000083474231                00000EXT           32627137N
00083SS61010000834911                  00000EXT            4697291N
00083SS6101000083540401                00000EXT          -49673742N
00083SS6102000083171101                00000EXT          832914395N
00083SS610200008326404101              00000EXT         -175655190N
00083SS610200008326241                 00000EXT         -110239388N
00083SS610200008326340                 00000EXT          -43496153N
00083SS6102000083264040100             00000EXT              -1104N
00083SS61020000832640403000            00000EXT          -42918387N
00083SS61020000832640403001            00000EXT           -3305943N
00083SS61020000832640403010            00000EXT          -10763669N
00083SS61020000832640403011            00000EXT           -4208745N
00083SS61020000832640403020            00000EXT          -17533991N
00083SS61020000832640403100            00000EXT           -7774697N
00083SS61020000832640404101            00000EXT            -527205N
00083SS610200008326404031220           00000EXT          -13483835N
00083SS610200008326404031221           00000EXT           -3907408N
00083SS610200008326404031210           00000EXT           -2759502N
00083SS61020000832640403140            00000EXT           -1497938N
00083SS61020000832640403141            00000EXT            -688650N
00083SS610200008326404031520           00000EXT         -430563781N
00083SS610200008326404031521           00000EXT          -11018824N
00083SS61020000832640404001            00000EXT          -91383008N
00083SS61020000832640404011            00000EXT         -458426013N
00083SS610200008326404041211           00000EXT          -16526506N
00083SS61020000832640404021            00000EXT          -18597117N
00083SS610200008326404041221           00000EXT         -155131210N
00083SS610200008326404041511           00000EXT        -1155973052N
00083SS61020000832811                  00000EXT         2050027908N
00083SS6102000083474241                00000EXT            8952067N
00083SS610200008354850                 00000EXT           -1317971N
00083SS61020000834911                  00000EXT           45668994N
00083SS6102000083460411                00000EXT           68357452N
00083SS6102000083540501                00000EXT         -228221529N
00083SS6103000083171101                00000EXT         -930180616N
00083SS61030000832640003000            00000EXT        -1658500735N
00083SS61030000832640003001            00000EXT          -61514017N
00083SS61030000832640003010            00000EXT          -13894065N
00083SS61030000832640003011            00000EXT           -9960340N
00083SS61030000832640003020            00000EXT          -14314685N
00083SS61030000832640003021            00000EXT           -2717351N
00083SS61030000832640003100            00000EXT          -56220160N
00083SS61030000832640003101            00000EXT           -2693705N
00083SS610300008326400031210           00000EXT            -201000N
00083SS610300008326400031220           00000EXT          -31312029N
00083SS610300008326400031221           00000EXT           -2246848N
00083SS61030000832640003140            00000EXT          -15042853N
00083SS61030000832640003141            00000EXT           -2414329N
00083SS610300008326400031520           00000EXT         -897608489N
00083SS610300008326400031521           00000EXT          -75310248N
00083SS61030000832640004001            00000EXT        -2621032340N
00083SS61030000832640004011            00000EXT        -1330891448N
00083SS610300008326400041211           00000EXT          -19522125N
00083SS610300008326400041221           00000EXT         -213600893N
00083SS610300008326400041511           00000EXT         9196245643N
00083SS61030000832811                  00000EXT        -2958174249N
00083SS6103000083460002                00000EXT         1155231256N
00083SS61030000834911                  00000EXT         -337608347N
00083SS610300008326499                 00000EXT            2030429N
00083SS61030000831732911               00000EXT          113441380N
00083SS6103000083281020                00000EXT          817882263N
00083SS61030000835350                  00000EXT          -29870099N
00083SS71200000834731                  00000EXT          -43877520N
00083SS71200000834630                  00000EXT          -16236740N
00083SS7120000083160510                00000EXT          -81699108N
00083SS712000008316000                 00000EXT       -13565591977N
00083SS712000008316002                 00000EXT         -622345808N
00083SS71200000831601011               00000EXT          -18172077N
00083SS712000008316100                 00000EXT          454497737N
00083SS712000008328101                 00000EXT          121858915N
00083SS71200000834911                  00000EXT           41875458N
00083SS7120000083281020                00000EXT        10239595643N
00083SS71200000831605010               00000EXT           -7384371N
00083SS7120000083171101                00000EXT         3637064709N
00083SS712000008344002                 00000EXT         -139584861N
00083SS7300000083122200                00000EXT          133405508N
00083SS7300000083122201                00000EXT          -26712613N
00083SS7300000083122210                00000EXT         -104275039N
00083SS73000000831222122               00000EXT          -50859700N
00083SS73000000831222141               00000EXT           -1625886N
00083SS73000000831222159               00000EXT         -935420001N
00083SS7300000083122300                00000EXT         -844837122N
00083SS7300000083122301                00000EXT         -326907339N
00083SS730000008312231210              00000EXT           -5768132N
00083SS730000008312231211              00000EXT             -44081N
00083SS73000000831223122               00000EXT          -55171526N
00083SS730000008312221211              00000EXT            9983164N
00083SS7300000083122315                00000EXT         -950982041N
00083SS7300000083140300                00000EXT         -133405507N
00083SS7300000083140301                00000EXT           26712613N
00083SS7300000083140310                00000EXT          104275039N
00083SS73000000831403121               00000EXT           -9983164N
00083SS73000000831403122               00000EXT           50859700N
00083SS7300000083140314                00000EXT            1625886N
00083SS73000000831403152               00000EXT          935420001N
00083SS7300000083140400                00000EXT          844837122N
00083SS7300000083140401                00000EXT          326907339N
00083SS73000000831404121               00000EXT            5812212N
00083SS73000000831404122               00000EXT           55171526N
00083SS7300000083140415                00000EXT          950982041N
00083SS761000008324991                 00000EXT         -720312644N
00083SS761000008344002                 00000EXT           34906435N
00083SS76100000834630                  00000EXT           16236740N
00083SS76100000834731                  00000EXT           43877520N
00083SS76100000834910                  00000EXT            8500000N
00083SS76100000834911                  00000EXT         -240104215N
00083SS76100000834201                  00000EXT            2111344N
00083SS76100000835350                  00000EXT                199N
00083SS76100000835221                  00000EXT             119350N
00083SS7610000083514                   00579EXT            4386467N
00083SS7610000083281020                00000EXT        -4371424334N
00083SS76100000832811                  00000EXT         5221703138N
00083SS7770000083150                   00513EXT         -181119718N
00083SS7770000083150                   00579EXT           -6701533N
00083SS7770000083151                   01024EXT        -1387863510N
00083SS77700000832811                  00000EXT         2045689762N
00083SS777000008324991                 00000EXT         -458795913N
00083SS7770000083514                   00579EXT           -4386466N
00083SS7770000083514                   00513EXT           -6822622N
00083SS0000007115259                   00001NAC           92235445N
00083SS0000007115259                   00001EXT           64492258N
00083SS0000007115150                   00001NAC           11656569N
00083SS0000007115150                   00001EXT          229579616N
00083SS000000711528310                 00000EXT         -397963888N
00083SS5000000083241204                00580EXT           -6163144N
00083SS5000000083241204                00000EXT          305205178N
00083SS5000000083241204                00175EXT          -10937068N
00083SS5000000083241204                04074EXT         -284382777N
00083SS5000000083241204                01115EXT           -2886898N
00083SS5000000083241204                00333EXT            -835291N
00083SS5000000083431104101             00175EXT           10937069N
00083SS5000000083431104101             00580EXT            6163144N
00083SS5000000083431104101             04074EXT          284382777N
00083SS5000000083431104101             00333EXT             835291N
00083SS500000008343110411              00000EXT         -302318281N
00083SS50000000834311913               00000EXT           -2886898N
00083SS50000000834311913               01115EXT            2886898N
00083SS0000007129171101                00000EXT           14375591N
00083SS000000712924510                 00000EXT         -775795645N
00083SS000000712926400041511           00000EXT         2585985484N
00083SS000000712926403041511           00000EXT          -47918637N
00083SS00000071292811                  00000EXT        -1680847547N
00083SS0000007129460002                00000EXT         -168394996N
00083SS0000007129460311                00000EXT           31538931N
00083SS00000071294911                  00000EXT           41056819N
00083SS000000713015331                 00000EXT         -176014371N
00083SS00000071304911                  00000EXT         -145664974N
00083SS00000071302811                  00000EXT          265598486N
00083SS000000713024510                 00000EXT         -429469054N
00083SS00000071304250                  00000EXT          485549913N
00083SS000000712216000                 00000EXT        22559876258N
00083SS000000712216100                 00000EXT        -5262106649N
00083SS0000007122160011                00000EXT         3981373036N
00083SS000000712216002                 00000EXT        -3873140908N
00083SS000000712216003                 00000EXT          629799834N
00083SS000000712215331                 00000EXT         2476550482N
00083SS000000712224510                 00000EXT        -5556217434N
00083SS00000071222810211               00000EXT       -23781578953N
00083SS0000007122281020                00000EXT          466763657N
00083SS00000071222811                  00000EXT         6489277946N
00083SS0000007122402101                00000EXT             250379N
00083SS0000007122402109                00000EXT             307990N
00083SS000000712240220111              00000EXT           11057702N
00083SS00000071224022102               00000EXT           39150075N
00083SS00000071224022112               00000EXT           13478684N
00083SS00000071224022122               00000EXT          297732485N
00083SS00000071224022181               00000EXT             802775N
00083SS000000712240231                 00000EXT           18482137N
00083SS00000071224029                  00000EXT              13858N
00083SS00000071224112                  00000EXT            3227577N
00083SS00000071224113                  00000EXT           64537917N
00083SS000000712241140                 00000EXT             132162N
00083SS000000712241141                 00000EXT              69171N
00083SS00000071224199                  00000EXT             780856N
00083SS000000712243000                 00000EXT           71433366N
00083SS000000712243001                 00000EXT           22889590N
00083SS00000071224301                  00000EXT           13244465N
00083SS000000712243041                 00000EXT              14179N
00083SS000000712243049                 00000EXT             143262N
00083SS00000071224305                  00000EXT              18199N
00083SS00000071224307                  00000EXT             219549N
00083SS000000712243100                 00000EXT            6672033N
00083SS0000007122431010                00000EXT            5898898N
00083SS000000712243102                 00000EXT            3942831N
00083SS0000007122431030                00000EXT            1048016N
00083SS00000071224310311               00000EXT            1828650N
00083SS00000071224310310               00000EXT             410429N
00083SS00000071224311011               00000EXT           11850341N
00083SS0000007122431102                00000EXT           -5000246N
00083SS000000712243110411              00000EXT           17327065N
00083SS0000007122431110                00000EXT            1247427N
00083SS0000007122431111                00000EXT           16166476N
00083SS0000007122431112                00000EXT            4854999N
00083SS0000007122431113                00000EXT            1341730N
00083SS0000007122431114                00000EXT              54976N
00083SS0000007122431120                00000EXT            3806123N
00083SS0000007122431121                00000EXT               2389N
00083SS0000007122431122                00000EXT             154923N
00083SS0000007122431123                00000EXT             254999N
00083SS0000007122431124                00000EXT            2149908N
00083SS0000007122431130                00000EXT              43972N
00083SS0000007122431140                00000EXT             204102N
00083SS0000007122431141                00000EXT            2989286N
00083SS0000007122431150                00000EXT            8518613N
00083SS0000007122431151                00000EXT           16853408N
00083SS000000712243116                 00000EXT            2494327N
00083SS0000007122431170                00000EXT             804723N
00083SS0000007122431171                00000EXT             175123N
00083SS0000007122431172                00000EXT             204287N
00083SS0000007122431176                00000EXT              40190N
00083SS0000007122431177                00000EXT              13589N
00083SS00000071224311910               00000EXT              97533N
00083SS00000071224311912               00000EXT             519165N
00083SS00000071224311913               00000EXT           11283951N
00083SS00000071224311915               00000EXT             300011N
00083SS0000007122431192                00000EXT              76140N
00083SS0000007122431193                00000EXT             204607N
00083SS0000007122431194                00000EXT             221173N
00083SS0000007122431195                00000EXT             584143N
00083SS00000071224311960               00000EXT             133488N
00083SS00000071224311961               00000EXT             292097N
00083SS0000007122431197                00000EXT             366900N
00083SS0000007122431199                00000EXT              22278N
00083SS000000712243120                 00000EXT            2863475N
00083SS000000712243121                 00000EXT           13522285N
00083SS000000712244000                 00000EXT          205976857N
00083SS000000712244001                 00000EXT          444562478N
00083SS000000712244002                 00000EXT          138003456N
00083SS000000712244003                 00000EXT            5832534N
00083SS000000712244060                 00000EXT            4253260N
00083SS00000071224410                  00000EXT            8833961N
00083SS000000712244119                 00000EXT            1043647N
00083SS00000071224416                  00000EXT             509153N
00083SS00000071224418                  00000EXT             297581N
00083SS0000007122450                   00000EXT            4418766N
00083SS000000712245900                 00000EXT              24679N
00083SS000000712245901                 00000EXT            1706292N
00083SS000000712245902                 00000EXT                765N
00083SS000000712245903                 00000EXT             416140N
00083SS000000712245904                 00000EXT              11979N
00083SS000000712245905                 00000EXT              24514N
00083SS000000712245906                 00000EXT            1774322N
00083SS00000071224591                  00000EXT             802678N
00083SS0000007122460002                00000EXT           55435007N
00083SS0000007122561010                00000EXT             -74521N
00083SS0000007122474900                00000EXT              30114N
00083SS0000007122474901                00000EXT               3082N
00083SS0000007122474903                00000EXT             205180N
00083SS0000007122474905                00000EXT               9507N
00083SS0000007122474906                00000EXT              81276N
00083SS000000712247491                 00000EXT             669155N
00083SS000000712247498                 00000EXT           11696693N
00083SS00000071224910                  00000EXT           49962405N
00083SS00000071224911                  00000EXT         -246262505N
00083SS0000007122502101                00000EXT           -1320864N
00083SS0000007122502102                00000EXT            -210105N
00083SS0000007122502103                00000EXT          -27416056N
00083SS00000071225022011               00000EXT              10635N
00083SS00000071225022102               00000EXT          -10509296N
00083SS00000071225022112               00000EXT         -105994677N
00083SS00000071225022122               00000EXT             -74655N
00083SS00000071225022142               00000EXT            -616847N
00083SS00000071225022152               00000EXT          -86851040N
00083SS00000071225022172               00000EXT         -243757850N
00083SS00000071225029                  00000EXT           -4080237N
00083SS0000007122503410                00000EXT          -33881738N
00083SS0000007122503414                00000EXT         -148624913N
00083SS0000007122514                   00513EXT             -41967N
00083SS00000071225200                  00000EXT            -684557N
00083SS00000071225210                  00000EXT            -129146N
00083SS00000071225211                  00000EXT          -54719286N
00083SS000000712252121                 00000EXT          -75350280N
00083SS00000071225213                  00000EXT          -19238710N
00083SS00000071225214                  00000EXT          -10999612N
00083SS00000071225220                  00000EXT            -828192N
00083SS00000071225221                  00000EXT            -947094N
00083SS0000007122522200                00000EXT           -1122602N
00083SS000000712252231                 00000EXT            -188222N
00083SS0000007122523                   00000EXT           -4261811N
00083SS00000071225240                  00000EXT           -3387903N
00083SS00000071225242                  00000EXT          -11480722N
00083SS0000007122527                   00000EXT           -2233162N
00083SS00000071225300                  00000EXT         -118370611N
00083SS00000071225302                  00000EXT           -9557122N
00083SS00000071225350                  00000EXT           -6330164N
00083SS00000071225351                  00000EXT             915263N
00083SS000000712254030                 00000EXT           -1846453N
00083SS0000007122550                   00000EXT               -988N
00083SS000000712255901                 00000EXT             -39104N
00083SS000000712255903                 00000EXT              -8833N
00083SS000000712255906                 00000EXT            -147378N
00083SS00000071225591                  00000EXT            2372626N
00083SS00000071225601                  00000EXT             -12997N
00083SS00000071225631                  00000EXT             -63222N
00083SS0000007122478                   00000EXT         1466356957N
