00083SS7770100083150                   00579EXT            -396361N
00083SS7770100083150                   00587EXT               1500N
00083SS7770100083150                   00697EXT             -55430N
00083SS7770100083150                   01152EXT            -154873N
00083SS7770100083151                   01024EXT          -82296053N
00083SS77701000832811                  00000EXT           82901217N
00083SS0000007095173210                00001EXT         -134204673N
00083SS00000070951732110               00000EXT         -138058531N
00083SS0000007095241204                00000EXT             -33194N
00083SS0000007095241242                00001EXT          134204673N
00083SS0000007095241242                00000EXT          138091725N
00083SS6101000083171101                00000EXT          969605652N
00083SS610100008326231                 00000EXT         -245089134N
00083SS610100008326331                 00000EXT         -298840930N
00083SS61010000832640302000            00000EXT                 -6N
00083SS6101000083264030100             00000EXT             -11521N
00083SS61010000832640302010            00000EXT               -354N
00083SS61010000832640301110            00000EXT           -1957171N
00083SS610100008326403021500           00000EXT           -1850052N
00083SS61010000832640303000            00000EXT          -27357699N
00083SS61010000832640303001            00000EXT          -14313996N
00083SS61010000832640303010            00000EXT          -31372016N
00083SS61010000832640303020            00000EXT          -31884670N
00083SS61010000832640303021            00000EXT            -626780N
00083SS61010000832640303011            00000EXT         -298735019N
00083SS61010000832640303100            00000EXT          -84271022N
00083SS61010000832640303101            00000EXT          -15827196N
00083SS610100008326403031210           00000EXT             -80535N
00083SS610100008326403031211           00000EXT          -12604227N
00083SS610100008326403031220           00000EXT          -10810185N
00083SS610100008326403031221           00000EXT         -150306377N
00083SS61010000832640303140            00000EXT           -2696553N
00083SS61010000832640303141            00000EXT           -1027905N
00083SS610100008326403031520           00000EXT         -183899168N
00083SS610100008326403031521           00000EXT          -72720196N
00083SS61010000832640304001            00000EXT          -12828945N
00083SS61010000832640304021            00000EXT           -2121744N
00083SS61010000832640304011            00000EXT        -1053699101N
00083SS610100008326403041211           00000EXT         -190072461N
00083SS610100008326403041221           00000EXT          -97428600N
00083SS610100008326403041511           00000EXT         -389585276N
00083SS61010000832811                  00000EXT         1233159108N
00083SS6101000083460311                00000EXT          133234975N
00083SS6101000083474341                00000EXT          217188975N
00083SS6101000083474231                00000EXT          245089133N
00083SS61010000834911                  00000EXT         -441108891N
00083SS6101000083460301                00000EXT          874849887N
00083SS6102000083171101                00000EXT          878583389N
00083SS610200008326404101              00000EXT         -229318313N
00083SS610200008326241                 00000EXT         -101287321N
00083SS610200008326341                 00000EXT          -44814124N
00083SS6102000083264040100             00000EXT              -5327N
00083SS61020000832640403000            00000EXT          -26286084N
00083SS61020000832640403001            00000EXT          -21017603N
00083SS61020000832640403010            00000EXT          -10741074N
00083SS61020000832640403011            00000EXT         -112209115N
00083SS61020000832640403020            00000EXT          -15328632N
00083SS61020000832640403021            00000EXT            -214399N
00083SS61020000832640403100            00000EXT          -15689806N
00083SS61020000832640403101            00000EXT            -326806N
00083SS610200008326404031211           00000EXT          -10013106N
00083SS610200008326404031220           00000EXT          -18197562N
00083SS610200008326404031221           00000EXT          -99071354N
00083SS610200008326404031210           00000EXT           -2525177N
00083SS61020000832640403140            00000EXT           -2883288N
00083SS61020000832640403141            00000EXT            -846576N
00083SS610200008326404031520           00000EXT         -587334874N
00083SS610200008326404031521           00000EXT          -95495162N
00083SS61020000832640404001            00000EXT          -42073312N
00083SS61020000832640404011            00000EXT         -352002350N
00083SS610200008326404041211           00000EXT           -3328353N
00083SS61020000832640404021            00000EXT          -19000534N
00083SS610200008326404041221           00000EXT          -55233883N
00083SS610200008326404041511           00000EXT        -1063367162N
00083SS61020000832811                  00000EXT         1578108149N
00083SS6102000083474241                00000EXT           53472569N
00083SS6102000083474351                00000EXT           44814123N
00083SS61020000834911                  00000EXT         -202251325N
00083SS6102000083460411                00000EXT           25132312N
00083SS6102000083460401                00000EXT          550752080N
00083SS6103000083171101                00000EXT        -1267788962N
00083SS61030000832640003000            00000EXT        -1585967591N
00083SS61030000832640003001            00000EXT         -437595064N
00083SS61030000832640003010            00000EXT          -16245384N
00083SS61030000832640003011            00000EXT          -94602697N
00083SS61030000832640003020            00000EXT          -19641664N
00083SS61030000832640003021            00000EXT           -2925541N
00083SS61030000832640003100            00000EXT          -52882897N
00083SS61030000832640003101            00000EXT           -4977034N
00083SS610300008326400031210           00000EXT            -195731N
00083SS610300008326400031211           00000EXT           -2590604N
00083SS610300008326400031220           00000EXT          -36143284N
00083SS610300008326400031221           00000EXT          -65175582N
00083SS61030000832640003140            00000EXT           -6782302N
00083SS61030000832640003141            00000EXT           -2033792N
00083SS610300008326400031520           00000EXT         -366037898N
00083SS610300008326400031521           00000EXT         -348033625N
00083SS61030000832640004001            00000EXT        -1949662418N
00083SS61030000832640004011            00000EXT        -1146617296N
00083SS610300008326400041211           00000EXT          -12628419N
00083SS610300008326400041221           00000EXT         -128100632N
00083SS610300008326400041511           00000EXT        10504802665N
00083SS61030000832811                  00000EXT         -654422969N
00083SS6103000083460002                00000EXT        -2355218811N
00083SS61030000834911                  00000EXT          987321974N
00083SS61030000835350                  00000EXT         -935854442N
00083SS712000008316000                 00000EXT        -7754613330N
00083SS712000008316002                 00000EXT         -729961067N
00083SS71200000831601011               00000EXT          -19093991N
00083SS712000008316100                 00000EXT          322810440N
00083SS71200000831611011               00000EXT             460957N
00083SS71200000832691                  00000EXT           19553654N
00083SS712000008328101                 00000EXT          268573121N
00083SS71200000834911                  00000EXT           62840714N
00083SS7120000083281020                00000EXT         5833669511N
00083SS71200000831605010               00000EXT           17599469N
00083SS7120000083171101                00000EXT         2187715441N
00083SS712000008344002                 00000EXT         -209469047N
00083SS7120000083440101                00000EXT             -85872N
00083SS7300000083122200                00000EXT          197427018N
00083SS7300000083122201                00000EXT           42718331N
00083SS7300000083122210                00000EXT         -119185808N
00083SS73000000831222122               00000EXT          -22392234N
00083SS73000000831222141               00000EXT              28233N
00083SS73000000831222159               00000EXT          -37779694N
00083SS7300000083122300                00000EXT          -51326301N
00083SS7300000083122301                00000EXT          342086863N
00083SS730000008312231210              00000EXT           17063642N
00083SS730000008312231211              00000EXT             134255N
00083SS73000000831223122               00000EXT           30731472N
00083SS730000008312221211              00000EXT            5502330N
00083SS7300000083122315                00000EXT         -597591872N
00083SS7300000083140300                00000EXT         -197427017N
00083SS7300000083140301                00000EXT          -42718331N
00083SS7300000083140310                00000EXT          119185808N
00083SS73000000831403121               00000EXT           -5502330N
00083SS73000000831403122               00000EXT           22392234N
00083SS7300000083140314                00000EXT             -28233N
00083SS73000000831403152               00000EXT           37779694N
00083SS7300000083140400                00000EXT           51326301N
00083SS7300000083140401                00000EXT         -342086863N
00083SS73000000831404121               00000EXT          -17197898N
00083SS73000000831404122               00000EXT          -30731472N
00083SS7300000083140415                00000EXT          597591872N
00083SS76100000834022102               00000EXT            -821370N
00083SS76100000834022122               00000EXT            -952540N
00083SS761000008340231                 00000EXT             774116N
00083SS761000008343040                 00000EXT            -582947N
00083SS761000008343100                 00000EXT           -6614702N
00083SS7610000083431010                00000EXT           15701013N
00083SS761000008343102                 00000EXT           13400000N
00083SS7610000083431030                00000EXT           -7313792N
00083SS76100000834310310               00000EXT           -6033573N
00083SS761000008343110411              00000EXT           -3893211N
00083SS7610000083431111                00000EXT          -16174422N
00083SS7610000083431120                00000EXT            5722812N
00083SS7610000083431122                00000EXT            6000000N
00083SS7610000083431123                00000EXT            1559921N
00083SS7610000083431124                00000EXT            4108090N
00083SS7610000083431141                00000EXT           -5620325N
00083SS7610000083431170                00000EXT            -675698N
00083SS7610000083431171                00000EXT           -1434617N
00083SS7610000083431176                00000EXT            -486466N
00083SS76100000834311913               00000EXT           -2403797N
00083SS7610000083431197                00000EXT            1487392N
00083SS7610000083440101                00000EXT              28248N
00083SS761000008347498                 00000EXT            1884454N
00083SS76100000834910                  00000EXT         -300000000N
00083SS76100000834911                  00000EXT          549932759N
00083SS7610000083502103                00000EXT          -30422362N
00083SS76100000835022112               00000EXT           -1001518N
00083SS76100000835022152               00000EXT           34655615N
00083SS7610000083515                   01024EXT          -25788089N
00083SS76100000835200                  00000EXT           -1914554N
00083SS76100000834199                  00000EXT            1768074N
00083SS76100000835300                  00000EXT           30422362N
00083SS76100000834201                  00000EXT            7795048N
00083SS76100000835350                  00000EXT            -508063N
00083SS761000008354030                 00000EXT             -17157N
00083SS7610000083561010                00000EXT             -91667N
00083SS761000008347491                 00000EXT          174788349N
00083SS76100000832811                  00000EXT         -437277383N
00083SS7770000083150                   00513EXT         -187984307N
00083SS7770000083150                   00579EXT          -11087999N
00083SS7770000083151                   01024EXT        -1387863510N
00083SS77700000835601                  00000EXT         -214333962N
00083SS77700000832811                  00000EXT         1519824218N
00083SS777000008324991                 00000EXT         -458795913N
00083SS7770000083514                   00579EXT           14365078N
00083SS7770000083514                   00513EXT           19908675N
00083SS7770000083512                   01024EXT         -193072300N
00083SS7770000083515                   01024EXT          899040020N
00083SS0000007115259                   00001NAC          219516850N
00083SS0000007115150                   00001NAC         -115624836N
00083SS000000711528310                 00000EXT         -103892014N
00083SS5000000083241204                00580EXT           -6999850N
00083SS5000000083241204                00000EXT          157225309N
00083SS5000000083241204                00175EXT           -7999183N
00083SS5000000083241204                04074EXT         -133291425N
00083SS5000000083241204                01115EXT           -6344861N
00083SS5000000083241204                00333EXT           -2589990N
00083SS5000000083431104101             00175EXT            7999183N
00083SS5000000083431104101             00580EXT            6999850N
00083SS5000000083431104101             04074EXT          133291425N
00083SS5000000083431104101             00333EXT            2589990N
00083SS500000008343110411              00000EXT         -150880448N
00083SS50000000834311913               00000EXT           -6344861N
00083SS50000000834311913               01115EXT            6344861N
00083SS0000007129171101                00000EXT            4913912N
00083SS000000712924510                 00000EXT         -725277146N
00083SS000000712926400041511           00000EXT         2417590488N
00083SS000000712926403041511           00000EXT          -16379706N
00083SS0000007129460002                00000EXT        -2417590488N
00083SS0000007129460311                00000EXT           16379706N
00083SS00000071294911                  00000EXT          720363234N
00083SS000000713015331                 00000EXT          309535542N
00083SS00000071305601                  00000EXT        -2300536111N
00083SS00000071304911                  00000EXT          575134028N
00083SS000000713024510                 00000EXT         -575134028N
00083SS00000071304250                  00000EXT         1991000569N
00083SS000000712216000                 00000EXT        11186225494N
00083SS000000712216100                 00000EXT         -740543209N
00083SS0000007122160011                00000EXT         7791688224N
00083SS000000712216101                 00000EXT        -4069710382N
00083SS000000712216002                 00000EXT         6562232477N
00083SS000000712216102                 00000EXT        -3538366319N
00083SS000000712216003                 00000EXT          656687381N
00083SS00000071221601011               00000EXT            6977424N
00083SS000000712215331                 00000EXT         1991000569N
00083SS000000712224510                 00000EXT        -5356557050N
00083SS00000071222810211               00000EXT       -25613022731N
00083SS0000007122281020                00000EXT          466763657N
00083SS00000071222811                  00000EXT         6489277946N
00083SS0000007122402101                00000EXT           12426400N
00083SS0000007122402103                00000EXT            2318315N
00083SS0000007122402109                00000EXT           28542213N
00083SS000000712240220111              00000EXT          182619190N
00083SS00000071224022102               00000EXT         2287627729N
00083SS00000071224022112               00000EXT          416801077N
00083SS00000071224022121               00000EXT            5977174N
00083SS00000071224022122               00000EXT        10035134544N
00083SS00000071224022181               00000EXT           15562059N
00083SS000000712240231                 00000EXT         1100194933N
00083SS00000071224029                  00000EXT           10983460N
00083SS00000071224111                  00000EXT            2915830N
00083SS00000071224112                  00000EXT          162851801N
00083SS00000071224113                  00000EXT         1674622337N
00083SS000000712241140                 00000EXT            9302639N
00083SS000000712241141                 00000EXT           14048223N
00083SS00000071224199                  00000EXT          255614285N
00083SS000000712243000                 00000EXT         2526370306N
00083SS000000712243001                 00000EXT          563283305N
00083SS00000071224301                  00000EXT          608683005N
00083SS000000712243040                 00000EXT          175908855N
00083SS000000712243041                 00000EXT            7174423N
00083SS000000712243049                 00000EXT            7965946N
00083SS00000071224305                  00000EXT            2872655N
00083SS00000071224307                  00000EXT            9348291N
00083SS000000712243100                 00000EXT          231116051N
00083SS0000007122431010                00000EXT          199929986N
00083SS000000712243102                 00000EXT           99138462N
00083SS0000007122431030                00000EXT           21881221N
00083SS00000071224310311               00000EXT           79292313N
00083SS00000071224310310               00000EXT           11681136N
00083SS00000071224311011               00000EXT          232910577N
00083SS0000007122431102                00000EXT         -101832402N
00083SS000000712243110411              00000EXT          749980838N
00083SS0000007122431110                00000EXT           31952176N
00083SS0000007122431111                00000EXT          273169712N
00083SS0000007122431112                00000EXT          161892404N
00083SS0000007122431113                00000EXT           36370265N
00083SS0000007122431114                00000EXT            1175490N
00083SS0000007122431120                00000EXT           98041586N
00083SS0000007122431121                00000EXT            5850973N
00083SS0000007122431122                00000EXT           21892445N
00083SS0000007122431123                00000EXT           10409109N
00083SS0000007122431124                00000EXT           19758211N
00083SS0000007122431130                00000EXT            8407829N
00083SS0000007122431140                00000EXT            7052922N
00083SS0000007122431141                00000EXT          220967793N
00083SS0000007122431150                00000EXT          254165954N
00083SS0000007122431151                00000EXT          463418608N
00083SS000000712243116                 00000EXT           31715329N
00083SS0000007122431170                00000EXT           18472547N
00083SS0000007122431171                00000EXT            5147686N
00083SS0000007122431172                00000EXT            4714641N
00083SS0000007122431176                00000EXT            1732547N
00083SS0000007122431177                00000EXT             839220N
00083SS00000071224311910               00000EXT            4997629N
00083SS00000071224311911               00000EXT             585896N
00083SS00000071224311912               00000EXT           21091177N
00083SS00000071224311913               00000EXT          231758451N
00083SS00000071224311915               00000EXT           10936430N
00083SS0000007122431192                00000EXT            1683581N
00083SS0000007122431193                00000EXT            5646862N
00083SS0000007122431194                00000EXT            5884224N
00083SS0000007122431195                00000EXT           25028532N
00083SS00000071224311960               00000EXT           17829374N
00083SS00000071224311961               00000EXT           27121688N
00083SS0000007122431197                00000EXT           11876930N
00083SS0000007122431199                00000EXT            1887935N
00083SS000000712243120                 00000EXT          101327608N
00083SS000000712243121                 00000EXT          479535587N
00083SS000000712244000                 00000EXT          887791356N
00083SS000000712244001                 00000EXT         1644814625N
00083SS000000712244002                 00000EXT          549228341N
00083SS000000712244003                 00000EXT           21972359N
00083SS0000007122440101                00000EXT               6718N
00083SS000000712244060                 00000EXT          185480592N
00083SS00000071224410                  00000EXT          204200869N
00083SS000000712244119                 00000EXT           48047227N
00083SS00000071224416                  00000EXT           20125057N
00083SS00000071224418                  00000EXT           11762365N
00083SS0000007122450                   00000EXT          189465579N
00083SS000000712245900                 00000EXT            4312765N
00083SS000000712245901                 00000EXT           55781184N
00083SS000000712245902                 00000EXT               5287N
00083SS000000712245903                 00000EXT            8218357N
00083SS000000712245904                 00000EXT             901816N
00083SS000000712245905                 00000EXT             753898N
00083SS000000712245906                 00000EXT           76771107N
00083SS00000071224591                  00000EXT           28687124N
00083SS0000007122460002                00000EXT         3223089959N
00083SS0000007122561010                00000EXT           -6125824N
00083SS00000071224731                  00000EXT            3435823N
00083SS0000007122474900                00000EXT             257771N
00083SS0000007122474901                00000EXT            3155758N
00083SS0000007122474903                00000EXT            1267766N
00083SS0000007122474904                00000EXT               4835N
00083SS0000007122474905                00000EXT            1123844N
00083SS0000007122474906                00000EXT            2362130N
00083SS000000712247491                 00000EXT          264371810N
00083SS000000712247498                 00000EXT          525757387N
00083SS000000712247499                 00000EXT          296868729N
00083SS0000007122477011                00000EXT             118813N
00083SS00000071224910                  00000EXT         2286640616N
00083SS00000071224911                  00000EXT         -917674889N
00083SS0000007122502101                00000EXT         -144605046N
00083SS0000007122502102                00000EXT          -10742770N
00083SS0000007122502103                00000EXT         -138504366N
00083SS00000071225022011               00000EXT            -158550N
00083SS00000071225022102               00000EXT        -1390146137N
00083SS00000071225022112               00000EXT        -3721771731N
00083SS00000071225022122               00000EXT           -4453779N
00083SS00000071225022142               00000EXT          -42889806N
00083SS00000071225022152               00000EXT        -3033813642N
00083SS00000071225022172               00000EXT        -8209449810N
00083SS0000007122502413                00000EXT            -303202N
00083SS00000071225029                  00000EXT         -220647356N
00083SS0000007122503410                00000EXT        -1116174900N
00083SS0000007122503413                00000EXT          -66528269N
00083SS0000007122503414                00000EXT        -7344659911N
00083SS000000712251003                 00000EXT         -433087463N
00083SS0000007122514                   00513EXT           -1809854N
00083SS0000007122515                   01024EXT          -86479304N
00083SS00000071225200                  00000EXT          -16468151N
00083SS00000071225210                  00000EXT           -5373352N
00083SS00000071225211                  00000EXT        -2145266792N
00083SS000000712252121                 00000EXT        -2258089395N
00083SS00000071225213                  00000EXT         -536221261N
00083SS00000071225214                  00000EXT         -441279434N
00083SS00000071225220                  00000EXT          -11659304N
00083SS00000071225221                  00000EXT          -36792125N
00083SS0000007122522200                00000EXT          -36242691N
00083SS000000712252231                 00000EXT           -3720566N
00083SS0000007122523                   00000EXT        -1625636516N
00083SS00000071225240                  00000EXT         -172874576N
00083SS00000071225242                  00000EXT         -384726661N
00083SS0000007122527                   00000EXT          -78233773N
00083SS00000071225299                  00000EXT            -153921N
00083SS00000071225300                  00000EXT         -358526154N
00083SS00000071224201                  00000EXT           34467508N
00083SS00000071225302                  00000EXT         -987298226N
00083SS00000071224220                  00000EXT            7466742N
00083SS00000071225350                  00000EXT         -121250601N
00083SS00000071225351                  00000EXT          -74884444N
00083SS00000071225360                  00000EXT           -2311670N
00083SS000000712254030                 00000EXT          -93105752N
00083SS0000007122463111                00000EXT            1017158N
00083SS0000007122550                   00000EXT           -6051194N
00083SS000000712255900                 00000EXT             -73822N
00083SS000000712255901                 00000EXT           -1948265N
00083SS000000712255902                 00000EXT               -189N
00083SS000000712255903                 00000EXT            -907280N
00083SS000000712255905                 00000EXT             -52920N
00083SS000000712255906                 00000EXT          -15760744N
00083SS00000071225591                  00000EXT          -16777055N
00083SS00000071225601                  00000EXT        -4032090568N
00083SS00000071225631                  00000EXT            -998984N
00083SS0000007122478                   00000EXT         9662303579N
00083SS0000007122477021                00000EXT            2526132N
